{
  "contractName": "SplitRevenue",
  "abi": [
    {
      "constant": true,
      "inputs": [],
      "name": "artist",
      "outputs": [
        {
          "name": "",
          "type": "address"
        }
      ],
      "payable": false,
      "stateMutability": "view",
      "type": "function",
      "signature": "0x43bc1612"
    },
    {
      "constant": true,
      "inputs": [],
      "name": "stopped",
      "outputs": [
        {
          "name": "",
          "type": "bool"
        }
      ],
      "payable": false,
      "stateMutability": "view",
      "type": "function",
      "signature": "0x75f12b21"
    },
    {
      "constant": true,
      "inputs": [],
      "name": "fansCount",
      "outputs": [
        {
          "name": "",
          "type": "uint256"
        }
      ],
      "payable": false,
      "stateMutability": "view",
      "type": "function",
      "signature": "0x8345a7cb"
    },
    {
      "constant": true,
      "inputs": [],
      "name": "owner",
      "outputs": [
        {
          "name": "",
          "type": "address"
        }
      ],
      "payable": false,
      "stateMutability": "view",
      "type": "function",
      "signature": "0x8da5cb5b"
    },
    {
      "constant": true,
      "inputs": [],
      "name": "isOwner",
      "outputs": [
        {
          "name": "",
          "type": "bool"
        }
      ],
      "payable": false,
      "stateMutability": "view",
      "type": "function",
      "signature": "0x8f32d59b"
    },
    {
      "constant": true,
      "inputs": [],
      "name": "stage",
      "outputs": [
        {
          "name": "",
          "type": "uint8"
        }
      ],
      "payable": false,
      "stateMutability": "view",
      "type": "function",
      "signature": "0xc040e6b8"
    },
    {
      "constant": true,
      "inputs": [
        {
          "name": "",
          "type": "address"
        }
      ],
      "name": "fanExists",
      "outputs": [
        {
          "name": "",
          "type": "bool"
        }
      ],
      "payable": false,
      "stateMutability": "view",
      "type": "function",
      "signature": "0xc2104320"
    },
    {
      "inputs": [],
      "payable": false,
      "stateMutability": "nonpayable",
      "type": "constructor",
      "signature": "constructor"
    },
    {
      "anonymous": false,
      "inputs": [
        {
          "indexed": true,
          "name": "artistFeatured",
          "type": "address"
        }
      ],
      "name": "ArtistAddition",
      "type": "event",
      "signature": "0x0c5643058425ee9c945efd0ec355f9b98c17a3856f332070b09a602ea26b6782"
    },
    {
      "anonymous": false,
      "inputs": [
        {
          "indexed": true,
          "name": "fansFeatured",
          "type": "address"
        }
      ],
      "name": "FanAddition",
      "type": "event",
      "signature": "0x2fc7e8c17ce2f5435475f926e84e7e4a0fa2000f9f6c84df6bcff4898c4bb5c2"
    },
    {
      "anonymous": false,
      "inputs": [
        {
          "indexed": true,
          "name": "revenue",
          "type": "uint256"
        }
      ],
      "name": "RevenueDeposit",
      "type": "event",
      "signature": "0xb222f36afc6c823bc44e2b8f7e372f27bbdb08d0863249bc335db897548205cc"
    },
    {
      "anonymous": false,
      "inputs": [
        {
          "indexed": true,
          "name": "artistRevenuePayment",
          "type": "uint256"
        }
      ],
      "name": "ArtistRevenuePayment",
      "type": "event",
      "signature": "0xd60807f578b1286f5aa704587507d19c87bb9d059985f25ab3d2ec82eff0d61f"
    },
    {
      "anonymous": false,
      "inputs": [
        {
          "indexed": true,
          "name": "fanRevenuePayment",
          "type": "uint256"
        }
      ],
      "name": "FanRevenuePayment",
      "type": "event",
      "signature": "0x3b12b0dc45bd00150a75f13c8a409351f6e9488b67dce5eef7433b70cc429969"
    },
    {
      "anonymous": false,
      "inputs": [
        {
          "indexed": true,
          "name": "message",
          "type": "string"
        }
      ],
      "name": "SelfDestruction",
      "type": "event",
      "signature": "0xa0723314964f9a7c7bfe659adacc8bdab8884c55dfe4bc02f344b80d5e39aed7"
    },
    {
      "constant": false,
      "inputs": [],
      "name": "paySplit",
      "outputs": [],
      "payable": true,
      "stateMutability": "payable",
      "type": "function",
      "signature": "0x1ec94f8c"
    },
    {
      "constant": false,
      "inputs": [
        {
          "name": "_artist",
          "type": "address"
        }
      ],
      "name": "addArtist",
      "outputs": [],
      "payable": false,
      "stateMutability": "nonpayable",
      "type": "function",
      "signature": "0x4d287f2b"
    },
    {
      "constant": false,
      "inputs": [
        {
          "name": "_fan",
          "type": "address"
        }
      ],
      "name": "addFan",
      "outputs": [],
      "payable": false,
      "stateMutability": "nonpayable",
      "type": "function",
      "signature": "0x678dbca5"
    },
    {
      "constant": false,
      "inputs": [],
      "name": "openSplit",
      "outputs": [],
      "payable": false,
      "stateMutability": "nonpayable",
      "type": "function",
      "signature": "0xf7afb433"
    },
    {
      "constant": false,
      "inputs": [],
      "name": "withdraw",
      "outputs": [],
      "payable": false,
      "stateMutability": "nonpayable",
      "type": "function",
      "signature": "0x3ccfd60b"
    },
    {
      "constant": false,
      "inputs": [],
      "name": "emergency",
      "outputs": [],
      "payable": false,
      "stateMutability": "nonpayable",
      "type": "function",
      "signature": "0xcaa6fea4"
    },
    {
      "constant": false,
      "inputs": [],
      "name": "kill",
      "outputs": [],
      "payable": false,
      "stateMutability": "nonpayable",
      "type": "function",
      "signature": "0x41c0e1b5"
    }
  ],
  "bytecode": "0x60806040526000600760006101000a81548160ff0219169083600181111561002357fe5b02179055506000600760016101000a81548160ff02191690831515021790555034801561004f57600080fd5b50336000806101000a81548173ffffffffffffffffffffffffffffffffffffffff021916908373ffffffffffffffffffffffffffffffffffffffff160217905550600060048190555060006006819055506000600581905550611ac4806100b76000396000f3fe6080604052600436106100d0576000357c0100000000000000000000000000000000000000000000000000000000900463ffffffff1680631ec94f8c146100d55780633ccfd60b146100df57806341c0e1b5146100f657806343bc16121461010d5780634d287f2b14610164578063678dbca5146101b557806375f12b21146102065780638345a7cb146102355780638da5cb5b146102605780638f32d59b146102b7578063c040e6b8146102e6578063c21043201461031f578063caa6fea414610388578063f7afb4331461039f575b600080fd5b6100dd6103b6565b005b3480156100eb57600080fd5b506100f46106bf565b005b34801561010257600080fd5b5061010b610a0d565b005b34801561011957600080fd5b50610122610b5f565b604051808273ffffffffffffffffffffffffffffffffffffffff1673ffffffffffffffffffffffffffffffffffffffff16815260200191505060405180910390f35b34801561017057600080fd5b506101b36004803603602081101561018757600080fd5b81019080803573ffffffffffffffffffffffffffffffffffffffff169060200190929190505050610b85565b005b3480156101c157600080fd5b50610204600480360360208110156101d857600080fd5b81019080803573ffffffffffffffffffffffffffffffffffffffff169060200190929190505050610e75565b005b34801561021257600080fd5b5061021b61125f565b604051808215151515815260200191505060405180910390f35b34801561024157600080fd5b5061024a611272565b6040518082815260200191505060405180910390f35b34801561026c57600080fd5b50610275611278565b604051808273ffffffffffffffffffffffffffffffffffffffff1673ffffffffffffffffffffffffffffffffffffffff16815260200191505060405180910390f35b3480156102c357600080fd5b506102cc6112a1565b604051808215151515815260200191505060405180910390f35b3480156102f257600080fd5b506102fb6112f8565b6040518082600181111561030b57fe5b60ff16815260200191505060405180910390f35b34801561032b57600080fd5b5061036e6004803603602081101561034257600080fd5b81019080803573ffffffffffffffffffffffffffffffffffffffff16906020019092919050505061130b565b604051808215151515815260200191505060405180910390f35b34801561039457600080fd5b5061039d61132b565b005b3480156103ab57600080fd5b506103b461142f565b005b60018060018111156103c457fe5b600760009054906101000a900460ff1660018111156103df57fe5b14151561047a576040517f08c379a00000000000000000000000000000000000000000000000000000000081526004018080602001828103825260288152602001807f46756e6374696f6e2063616e206e6f742062652063616c6c656420617420746881526020017f69732074696d652e00000000000000000000000000000000000000000000000081525060400191505060405180910390fd5b600760019054906101000a900460ff16151515610525576040517f08c379a000000000000000000000000000000000000000000000000000000000815260040180806020018281038252602b8152602001807f456d657267656e63793b20746869732066756e6374696f6e2063616e206e6f7481526020017f2062652063616c6c65642e00000000000000000000000000000000000000000081525060400191505060405180910390fd5b6000341115156105c3576040517f08c379a00000000000000000000000000000000000000000000000000000000081526004018080602001828103825260238152602001807f656e6f7567682066756e64732068617665206e6f74206265656e2070726f766981526020017f646564000000000000000000000000000000000000000000000000000000000081525060400191505060405180910390fd5b60016006541015151561063e576040517f08c379a000000000000000000000000000000000000000000000000000000000815260040180806020018281038252601b8152602001807f6e6f7420656e6f7567682066616e7320696e20636f6e7472616374000000000081525060200191505060405180910390fd5b61066661065560023461151190919063ffffffff16565b60045461153b90919063ffffffff16565b60048190555061068060023461151190919063ffffffff16565b600560008282540192505081905550347fb222f36afc6c823bc44e2b8f7e372f27bbdb08d0863249bc335db897548205cc60405160405180910390a250565b60018060018111156106cd57fe5b600760009054906101000a900460ff1660018111156106e857fe5b141515610783576040517f08c379a00000000000000000000000000000000000000000000000000000000081526004018080602001828103825260288152602001807f46756e6374696f6e2063616e206e6f742062652063616c6c656420617420746881526020017f69732074696d652e00000000000000000000000000000000000000000000000081525060400191505060405180910390fd5b60003073ffffffffffffffffffffffffffffffffffffffff1631111515610838576040517f08c379a000000000000000000000000000000000000000000000000000000000815260040180806020018281038252602b8152602001807f636f6e74726163742062616c616e6365206973206e6f7420656e6f756768206681526020017f6f7220776974686472617700000000000000000000000000000000000000000081525060400191505060405180910390fd5b6001600654101515156108b3576040517f08c379a000000000000000000000000000000000000000000000000000000000815260040180806020018281038252601b8152602001807f6e6f7420656e6f7567682066616e7320696e20636f6e7472616374000000000081525060200191505060405180910390fd5b600160003373ffffffffffffffffffffffffffffffffffffffff1673ffffffffffffffffffffffffffffffffffffffff16815260200190815260200160002060009054906101000a900460ff16156109125761090d61155c565b610a0a565b600360009054906101000a900473ffffffffffffffffffffffffffffffffffffffff1673ffffffffffffffffffffffffffffffffffffffff163373ffffffffffffffffffffffffffffffffffffffff16141561097557610970611843565b610a09565b6040517f08c379a00000000000000000000000000000000000000000000000000000000081526004018080602001828103825260248152602001807f6d73672e73656e646572206973206e6f7420612066616e206f7220616e20617281526020017f746973740000000000000000000000000000000000000000000000000000000081525060400191505060405180910390fd5b5b50565b610a156112a1565b1515610a2057600080fd5b6000806001811115610a2e57fe5b600760009054906101000a900460ff166001811115610a4957fe5b141515610ae4576040517f08c379a00000000000000000000000000000000000000000000000000000000081526004018080602001828103825260288152602001807f46756e6374696f6e2063616e206e6f742062652063616c6c656420617420746881526020017f69732074696d652e00000000000000000000000000000000000000000000000081525060400191505060405180910390fd5b60405180807f436f6e74726163742053656c6620446573747275637465640000000000000000815250601801905060405180910390207fa0723314964f9a7c7bfe659adacc8bdab8884c55dfe4bc02f344b80d5e39aed760405160405180910390a23373ffffffffffffffffffffffffffffffffffffffff16ff5b600360009054906101000a900473ffffffffffffffffffffffffffffffffffffffff1681565b610b8d6112a1565b1515610b9857600080fd5b6000806001811115610ba657fe5b600760009054906101000a900460ff166001811115610bc157fe5b141515610c5c576040517f08c379a00000000000000000000000000000000000000000000000000000000081526004018080602001828103825260288152602001807f46756e6374696f6e2063616e206e6f742062652063616c6c656420617420746881526020017f69732074696d652e00000000000000000000000000000000000000000000000081525060400191505060405180910390fd5b600073ffffffffffffffffffffffffffffffffffffffff168273ffffffffffffffffffffffffffffffffffffffff1614151515610d27576040517f08c379a00000000000000000000000000000000000000000000000000000000081526004018080602001828103825260258152602001807f796f752068617665206e6f7420737570706c69656420612076616c696420616481526020017f647265737300000000000000000000000000000000000000000000000000000081525060400191505060405180910390fd5b600073ffffffffffffffffffffffffffffffffffffffff16600360009054906101000a900473ffffffffffffffffffffffffffffffffffffffff1673ffffffffffffffffffffffffffffffffffffffff16141515610ded576040517f08c379a000000000000000000000000000000000000000000000000000000000815260040180806020018281038252601d8152602001807f617274697374206164647265737320616c72656164792065786973747300000081525060200191505060405180910390fd5b81600360006101000a81548173ffffffffffffffffffffffffffffffffffffffff021916908373ffffffffffffffffffffffffffffffffffffffff1602179055508173ffffffffffffffffffffffffffffffffffffffff167f0c5643058425ee9c945efd0ec355f9b98c17a3856f332070b09a602ea26b678260405160405180910390a25050565b610e7d6112a1565b1515610e8857600080fd5b6000806001811115610e9657fe5b600760009054906101000a900460ff166001811115610eb157fe5b141515610f4c576040517f08c379a00000000000000000000000000000000000000000000000000000000081526004018080602001828103825260288152602001807f46756e6374696f6e2063616e206e6f742062652063616c6c656420617420746881526020017f69732074696d652e00000000000000000000000000000000000000000000000081525060400191505060405180910390fd5b600360009054906101000a900473ffffffffffffffffffffffffffffffffffffffff1673ffffffffffffffffffffffffffffffffffffffff168273ffffffffffffffffffffffffffffffffffffffff1614151515611012576040517f08c379a000000000000000000000000000000000000000000000000000000000815260040180806020018281038252601d8152602001807f6164647265737320697320616c7265616479207468652061727469737400000081525060200191505060405180910390fd5b600073ffffffffffffffffffffffffffffffffffffffff168273ffffffffffffffffffffffffffffffffffffffff16141515156110dd576040517f08c379a00000000000000000000000000000000000000000000000000000000081526004018080602001828103825260258152602001807f796f752068617665206e6f7420737570706c69656420612076616c696420616481526020017f647265737300000000000000000000000000000000000000000000000000000081525060400191505060405180910390fd5b60001515600160008473ffffffffffffffffffffffffffffffffffffffff1673ffffffffffffffffffffffffffffffffffffffff16815260200190815260200160002060009054906101000a900460ff1615151415156111a5576040517f08c379a000000000000000000000000000000000000000000000000000000000815260040180806020018281038252601a8152602001807f66616e206164647265737320616c72656164792065786973747300000000000081525060200191505060405180910390fd5b60018060008473ffffffffffffffffffffffffffffffffffffffff1673ffffffffffffffffffffffffffffffffffffffff16815260200190815260200160002060006101000a81548160ff021916908315150217905550611212600160065461153b90919063ffffffff16565b6006819055508173ffffffffffffffffffffffffffffffffffffffff167f2fc7e8c17ce2f5435475f926e84e7e4a0fa2000f9f6c84df6bcff4898c4bb5c260405160405180910390a25050565b600760019054906101000a900460ff1681565b60065481565b60008060009054906101000a900473ffffffffffffffffffffffffffffffffffffffff16905090565b60008060009054906101000a900473ffffffffffffffffffffffffffffffffffffffff1673ffffffffffffffffffffffffffffffffffffffff163373ffffffffffffffffffffffffffffffffffffffff1614905090565b600760009054906101000a900460ff1681565b60016020528060005260406000206000915054906101000a900460ff1681565b6113336112a1565b151561133e57600080fd5b600180600181111561134c57fe5b600760009054906101000a900460ff16600181111561136757fe5b141515611402576040517f08c379a00000000000000000000000000000000000000000000000000000000081526004018080602001828103825260288152602001807f46756e6374696f6e2063616e206e6f742062652063616c6c656420617420746881526020017f69732074696d652e00000000000000000000000000000000000000000000000081525060400191505060405180910390fd5b600760019054906101000a900460ff1615600760016101000a81548160ff02191690831515021790555050565b6114376112a1565b151561144257600080fd5b600080600181111561145057fe5b600760009054906101000a900460ff16600181111561146b57fe5b141515611506576040517f08c379a00000000000000000000000000000000000000000000000000000000081526004018080602001828103825260288152602001807f46756e6374696f6e2063616e206e6f742062652063616c6c656420617420746881526020017f69732074696d652e00000000000000000000000000000000000000000000000081525060400191505060405180910390fd5b61150e611a29565b50565b6000808211151561152157600080fd5b6000828481151561152e57fe5b0490508091505092915050565b600080828401905083811015151561155257600080fd5b8091505092915050565b600180600181111561156a57fe5b600760009054906101000a900460ff16600181111561158557fe5b141515611620576040517f08c379a00000000000000000000000000000000000000000000000000000000081526004018080602001828103825260288152602001807f46756e6374696f6e2063616e206e6f742062652063616c6c656420617420746881526020017f69732074696d652e00000000000000000000000000000000000000000000000081525060400191505060405180910390fd5b600061168a600260003373ffffffffffffffffffffffffffffffffffffffff1673ffffffffffffffffffffffffffffffffffffffff1681526020019081526020016000205461167c60065460055461151190919063ffffffff16565b611a7690919063ffffffff16565b905060008114151515611705576040517f08c379a000000000000000000000000000000000000000000000000000000000815260040180806020018281038252600c8152602001807f7061796d656e742069732030000000000000000000000000000000000000000081525060200191505060405180910390fd5b803073ffffffffffffffffffffffffffffffffffffffff16311015151561172857fe5b806005541015151561173657fe5b61178881600260003373ffffffffffffffffffffffffffffffffffffffff1673ffffffffffffffffffffffffffffffffffffffff1681526020019081526020016000205461153b90919063ffffffff16565b600260003373ffffffffffffffffffffffffffffffffffffffff1673ffffffffffffffffffffffffffffffffffffffff168152602001908152602001600020819055503373ffffffffffffffffffffffffffffffffffffffff166108fc829081150290604051600060405180830381858888f19350505050158015611811573d6000803e3d6000fd5b50807f3b12b0dc45bd00150a75f13c8a409351f6e9488b67dce5eef7433b70cc42996960405160405180910390a25050565b600180600181111561185157fe5b600760009054906101000a900460ff16600181111561186c57fe5b141515611907576040517f08c379a00000000000000000000000000000000000000000000000000000000081526004018080602001828103825260288152602001807f46756e6374696f6e2063616e206e6f742062652063616c6c656420617420746881526020017f69732074696d652e00000000000000000000000000000000000000000000000081525060400191505060405180910390fd5b6000600454905060008114151515611987576040517f08c379a00000000000000000000000000000000000000000000000000000000081526004018080602001828103825260138152602001807f6172746973742062616c616e636520697320300000000000000000000000000081525060200191505060405180910390fd5b6000600481905550600360009054906101000a900473ffffffffffffffffffffffffffffffffffffffff1673ffffffffffffffffffffffffffffffffffffffff166108fc829081150290604051600060405180830381858888f193505050501580156119f7573d6000803e3d6000fd5b50807fd60807f578b1286f5aa704587507d19c87bb9d059985f25ab3d2ec82eff0d61f60405160405180910390a25050565b6001600760009054906101000a900460ff166001811115611a4657fe5b016001811115611a5257fe5b600760006101000a81548160ff02191690836001811115611a6f57fe5b0217905550565b6000828211151515611a8757600080fd5b60008284039050809150509291505056fea165627a7a7230582092bb726637d61ac79d8268035a0f344ac0717330f5c5554d2c7483de27c327240029",
  "source": "pragma solidity ^0.5.0;\n\nimport \"./SafeMath.sol\"; \nimport \"./Ownable.sol\";\n\n\n/// @author Saga Arvidsdotter - <hello@sagaarvidsdotter.com>\n/// @title SplitRevenue - Splitting revenue from a song between artist and fans. \n \n \ncontract SplitRevenue is Ownable {\n    using SafeMath for uint256; \n\n    event ArtistAddition(address indexed artistFeatured);\n    event FanAddition(address indexed fansFeatured);\n    event RevenueDeposit(uint256 indexed revenue);\n    event ArtistRevenuePayment(uint256 indexed artistRevenuePayment);\n    event FanRevenuePayment(uint256 indexed fanRevenuePayment); \n    event SelfDestruction(string indexed message); \n\n    mapping(address => bool) public fanExists;\n    mapping(address => uint256) private _fanEthReleased; //split pattern \n    address payable public artist;\n    uint256 private artistSplit; // artistSplitCurrent\n    uint256 private fansSplitTotal; //split pattern fmr: fansSplit\n    uint256 public fansCount; //split pattern\n\n    // State Machine  \n    Stages public stage = Stages.Creation;\n\n    enum Stages {\n        Creation, Open\n    }\n\n    modifier atStage(Stages _stage) {\n        require(stage == _stage, \"Function can not be called at this time.\");\n        _;\n    }\n\n    function nextStage() internal {\n        stage = Stages(uint256(stage) + 1);\n    }\n\n    // Circuit Breaker different contract file\n    bool public stopped = false;\n\n    modifier stopInEmergency {\n        require(!stopped, \"Emergency; this function can not be called.\");\n        _;\n    }\n\n   \n    /// Public functions. \n   \n    /// @dev Contract constructor sets starting values of balances and number of fans to 0.    \n    constructor() public {\n        artistSplit = 0;\n        fansCount = 0;\n        fansSplitTotal = 0;\n    }\n\n    /// @dev Allows anyone to deposit ether and split half for the artist and half equally between fans.\n    /// @dev Access is restricted to stage Open. An owner can disallow access in emergency. \n    function paySplit() \n        external \n        payable \n        atStage(Stages.Open) \n        stopInEmergency \n    {\n        require(msg.value > 0, \"enough funds have not been provided\"); //behövs?\n        //require(msg.data.length == 0); ?\n        require(fansCount >= 1, \"not enough fans in contract\");\n\n        artistSplit =  artistSplit.add(msg.value.div(2)); \n        fansSplitTotal += msg.value.div(2); \n\n        emit RevenueDeposit(msg.value);\n    }\n  \n    /// @dev Allows an owner to add an artist if one does not exist yet.\n    /// @dev Access is restricted to the Creation stage. \n    /// @param _artist Address of artist.   \n    function addArtist(address payable _artist) \n        public \n        onlyOwner \n        atStage(Stages.Creation) \n    {\n        require(_artist != address(0), \"you have not supplied a valid address\");\n        require(address(artist) == address(0), \"artist address already exists\"); \n        artist = _artist;\n\n        emit ArtistAddition(_artist);\n    }\n   \n    /// @dev Allows an owner to add a new fan. \n    /// @dev Access is restricted to the Creation stage.\n    /// @param _fan Address of new fan.   \n    function addFan(address payable _fan) \n        public \n        onlyOwner \n        atStage(Stages.Creation) \n    { \n        require(_fan != artist, \"address is already the artist\");\n        require(_fan != address(0), \"you have not supplied a valid address\");\n        require(fanExists[_fan] == false, \"fan address already exists\");\n\n        fanExists[_fan] = true;\n        fansCount = fansCount.add(1); \n\n        emit FanAddition(_fan);\n    }\n   \n    /// @dev Allows an owner to change stage from Creation to Open. \n    /// @dev Access is restricted to stage Creation.  // behövs?\n    function openSplit() \n        public \n        onlyOwner \n        atStage(Stages.Creation) \n    { \n        nextStage();\n    }\n   \n    /// @dev Allows a fan or artist to withdraw their ether split. \n    /// @dev Access is restricted to stage Open. \n    function withdraw() \n        public \n        atStage(Stages.Open) \n    {  //withdraw pattern\n        require(address(this).balance > 0, \"contract balance is not enough for withdraw\");\n        require(fansCount >= 1, \"not enough fans in contract\");\n        \n        if(fanExists[msg.sender]){\n            fanWithdraw();\n        } else if(msg.sender == artist) {\n            artistWithdraw();\n        } else {\n            revert(\"msg.sender is not a fan or an artist\");\n        }\n    }\n  \n    /// @dev In emergency allows an owner to toggle an access restriction modifier on and off.\n    /// @dev Access is restricted to stage Open.  \n    function emergency() \n        public \n        onlyOwner \n        atStage(Stages.Open) \n    {\n        stopped = !stopped;\n    }\n \n    /// @dev Allows an owner to self destruct contract.\n    /// @dev Access is restriced to stage Creation. \n    function kill() \n        public \n        onlyOwner \n        atStage(Stages.Creation) \n    {\n        emit SelfDestruction(\"Contract Self Destructed\"); //funkar detta?\n\n        selfdestruct(msg.sender);\n    }\n\n    \n    /// Private functions.  //or internal?\n\n    /// @dev Transfer artist remaining ether split to artist address. //write remaining or not remaining?\n    /// @dev Access is restricted to stage Open.  //skriva det eller är det redan antaget? skriva mer för att visa intern func?\n    function artistWithdraw() \n        private \n        atStage(Stages.Open) \n    {\n        uint256 artistSplitWithdraw = artistSplit;\n        require(artistSplitWithdraw != 0, \"artist balance is 0\");\n        artistSplit = 0; //preventing re-entrancy attacks (race conditions)\n        artist.transfer(artistSplitWithdraw);\n\n        emit ArtistRevenuePayment(artistSplitWithdraw);\n    }\n    \n    /// @dev Transfer fan's remaining ether split to fan address. //fan's?\n    /// @dev Access is restricted to stage Open. \n    function fanWithdraw() \n        private \n        atStage(Stages.Open) \n    { /// time\n        uint256 payment = fansSplitTotal.div(fansCount).sub(_fanEthReleased[msg.sender]); \n        require(payment != 0, \"payment is 0\"); // >0 ?\n        assert(address(this).balance >= payment);\n        assert(fansSplitTotal >= payment); // behövs båda?\n\n        _fanEthReleased[msg.sender] = _fanEthReleased[msg.sender].add(payment);\n        msg.sender.transfer(payment);\n\n        emit FanRevenuePayment(payment);\n    }\n\n    /*\n    * Web3 call functions\n    */\n\n    // getFanExists() //mapping så denna behövs?\n    // getArtist() finns dessa redan i o m public?\n    // getFanCount()\n    // get()\n}\n",
  "sourcePath": "/home/saga/Desktop/ConsenSys-Bootcamp/final-project-SagaDott/contracts/SplitRevenue.sol",
  "compiler": {
    "name": "solc",
    "version": "0.5.0+commit.1d4f565a.Emscripten.clang"
  },
  "schemaVersion": "3.0.0",
  "updatedAt": "2019-01-25T20:41:29.534Z",
  "devdoc": {
    "author": "Saga Arvidsdotter - <hello@sagaarvidsdotter.com>",
    "methods": {
      "addArtist(address)": {
        "details": "Allows an owner to add an artist if one does not exist yet.Access is restricted to the Creation stage. ",
        "params": {
          "_artist": "Address of artist.   "
        }
      },
      "addFan(address)": {
        "details": "Allows an owner to add a new fan. Access is restricted to the Creation stage.",
        "params": {
          "_fan": "Address of new fan.   "
        }
      },
      "constructor": {
        "details": "Contract constructor sets starting values of balances and number of fans to 0.    "
      },
      "emergency()": {
        "details": "In emergency allows an owner to toggle an access restriction modifier on and off.Access is restricted to stage Open.  "
      },
      "isOwner()": {
        "return": "true if `msg.sender` is the owner of the contract."
      },
      "kill()": {
        "details": "Allows an owner to self destruct contract.Access is restriced to stage Creation. "
      },
      "openSplit()": {
        "details": "Allows an owner to change stage from Creation to Open. Access is restricted to stage Creation.  // behövs?"
      },
      "owner()": {
        "return": "the address of the owner."
      },
      "paySplit()": {
        "details": "Allows anyone to deposit ether and split half for the artist and half equally between fans.Access is restricted to stage Open. An owner can disallow access in emergency. "
      },
      "withdraw()": {
        "details": "Allows a fan or artist to withdraw their ether split. Access is restricted to stage Open. "
      }
    },
    "title": "SplitRevenue - Splitting revenue from a song between artist and fans. "
  },
  "userdoc": {
    "methods": {
      "constructor": "Public functions. "
    }
  }
}