{
  "contractName": "SplitRevenue",
  "abi": [
    {
      "constant": true,
      "inputs": [],
      "name": "fansSplitTotal",
      "outputs": [
        {
          "name": "",
          "type": "uint256"
        }
      ],
      "payable": false,
      "stateMutability": "view",
      "type": "function",
      "signature": "0x2df772ae"
    },
    {
      "constant": true,
      "inputs": [],
      "name": "artist",
      "outputs": [
        {
          "name": "",
          "type": "address"
        }
      ],
      "payable": false,
      "stateMutability": "view",
      "type": "function",
      "signature": "0x43bc1612"
    },
    {
      "constant": true,
      "inputs": [],
      "name": "stopped",
      "outputs": [
        {
          "name": "",
          "type": "bool"
        }
      ],
      "payable": false,
      "stateMutability": "view",
      "type": "function",
      "signature": "0x75f12b21"
    },
    {
      "constant": true,
      "inputs": [],
      "name": "fansCount",
      "outputs": [
        {
          "name": "",
          "type": "uint256"
        }
      ],
      "payable": false,
      "stateMutability": "view",
      "type": "function",
      "signature": "0x8345a7cb"
    },
    {
      "constant": true,
      "inputs": [],
      "name": "owner",
      "outputs": [
        {
          "name": "",
          "type": "address"
        }
      ],
      "payable": false,
      "stateMutability": "view",
      "type": "function",
      "signature": "0x8da5cb5b"
    },
    {
      "constant": true,
      "inputs": [],
      "name": "isOwner",
      "outputs": [
        {
          "name": "",
          "type": "bool"
        }
      ],
      "payable": false,
      "stateMutability": "view",
      "type": "function",
      "signature": "0x8f32d59b"
    },
    {
      "constant": true,
      "inputs": [],
      "name": "stage",
      "outputs": [
        {
          "name": "",
          "type": "uint8"
        }
      ],
      "payable": false,
      "stateMutability": "view",
      "type": "function",
      "signature": "0xc040e6b8"
    },
    {
      "constant": true,
      "inputs": [
        {
          "name": "",
          "type": "address"
        }
      ],
      "name": "fanExists",
      "outputs": [
        {
          "name": "",
          "type": "bool"
        }
      ],
      "payable": false,
      "stateMutability": "view",
      "type": "function",
      "signature": "0xc2104320"
    },
    {
      "inputs": [],
      "payable": false,
      "stateMutability": "nonpayable",
      "type": "constructor",
      "signature": "constructor"
    },
    {
      "anonymous": false,
      "inputs": [
        {
          "indexed": true,
          "name": "artistFeatured",
          "type": "address"
        }
      ],
      "name": "ArtistAddition",
      "type": "event",
      "signature": "0x0c5643058425ee9c945efd0ec355f9b98c17a3856f332070b09a602ea26b6782"
    },
    {
      "anonymous": false,
      "inputs": [
        {
          "indexed": true,
          "name": "fansFeatured",
          "type": "address"
        }
      ],
      "name": "FanAddition",
      "type": "event",
      "signature": "0x2fc7e8c17ce2f5435475f926e84e7e4a0fa2000f9f6c84df6bcff4898c4bb5c2"
    },
    {
      "anonymous": false,
      "inputs": [
        {
          "indexed": true,
          "name": "revenue",
          "type": "uint256"
        }
      ],
      "name": "RevenueDeposit",
      "type": "event",
      "signature": "0xb222f36afc6c823bc44e2b8f7e372f27bbdb08d0863249bc335db897548205cc"
    },
    {
      "anonymous": false,
      "inputs": [
        {
          "indexed": true,
          "name": "artistRevenuePayment",
          "type": "uint256"
        }
      ],
      "name": "ArtistRevenueRelease",
      "type": "event",
      "signature": "0xf1dac3940a59aad5bfce1b58641d7186b05b773e9f4cfc16c57d9a352ddbc699"
    },
    {
      "anonymous": false,
      "inputs": [
        {
          "indexed": true,
          "name": "fanRevenuePayment",
          "type": "uint256"
        }
      ],
      "name": "FanRevenueRelease",
      "type": "event",
      "signature": "0xaf9e0b29f19a8491dbb26c9d65f215feafd2db0d4bb7799655f76f3c5877fba9"
    },
    {
      "anonymous": false,
      "inputs": [
        {
          "indexed": true,
          "name": "message",
          "type": "string"
        }
      ],
      "name": "SelfDestruction",
      "type": "event",
      "signature": "0xa0723314964f9a7c7bfe659adacc8bdab8884c55dfe4bc02f344b80d5e39aed7"
    },
    {
      "anonymous": false,
      "inputs": [
        {
          "indexed": true,
          "name": "stageOpen",
          "type": "bool"
        }
      ],
      "name": "StageOpenTransition",
      "type": "event",
      "signature": "0xc3daf27c261a939396e83b413e7d549df9f0cff66a2addd7068c73d65d36f315"
    },
    {
      "anonymous": false,
      "inputs": [
        {
          "indexed": true,
          "name": "emergencyState",
          "type": "bool"
        }
      ],
      "name": "EmergencyStated",
      "type": "event",
      "signature": "0x055941b77cd58f4d6861b56e99057bf0eae47e9753b74a2c30f6557fc7a7c45e"
    },
    {
      "constant": false,
      "inputs": [],
      "name": "paySplit",
      "outputs": [],
      "payable": true,
      "stateMutability": "payable",
      "type": "function",
      "signature": "0x1ec94f8c"
    },
    {
      "constant": false,
      "inputs": [
        {
          "name": "_artist",
          "type": "address"
        }
      ],
      "name": "addArtist",
      "outputs": [],
      "payable": false,
      "stateMutability": "nonpayable",
      "type": "function",
      "signature": "0x4d287f2b"
    },
    {
      "constant": false,
      "inputs": [
        {
          "name": "_fan",
          "type": "address"
        }
      ],
      "name": "addFan",
      "outputs": [],
      "payable": false,
      "stateMutability": "nonpayable",
      "type": "function",
      "signature": "0x678dbca5"
    },
    {
      "constant": false,
      "inputs": [],
      "name": "openSplit",
      "outputs": [],
      "payable": false,
      "stateMutability": "nonpayable",
      "type": "function",
      "signature": "0xf7afb433"
    },
    {
      "constant": false,
      "inputs": [],
      "name": "withdraw",
      "outputs": [],
      "payable": false,
      "stateMutability": "nonpayable",
      "type": "function",
      "signature": "0x3ccfd60b"
    },
    {
      "constant": false,
      "inputs": [],
      "name": "emergency",
      "outputs": [],
      "payable": false,
      "stateMutability": "nonpayable",
      "type": "function",
      "signature": "0xcaa6fea4"
    },
    {
      "constant": false,
      "inputs": [],
      "name": "kill",
      "outputs": [],
      "payable": false,
      "stateMutability": "nonpayable",
      "type": "function",
      "signature": "0x41c0e1b5"
    }
  ],
  "bytecode": "0x608060405260008060146101000a81548160ff0219169083600181111561002257fe5b02179055506000600760006101000a81548160ff02191690831515021790555034801561004e57600080fd5b50336000806101000a81548173ffffffffffffffffffffffffffffffffffffffff021916908373ffffffffffffffffffffffffffffffffffffffff160217905550600060048190555060006005819055506000600681905550611b71806100b66000396000f3fe6080604052600436106100db576000357c0100000000000000000000000000000000000000000000000000000000900463ffffffff1680631ec94f8c146100e05780632df772ae146100ea5780633ccfd60b1461011557806341c0e1b51461012c57806343bc1612146101435780634d287f2b1461019a578063678dbca5146101eb57806375f12b211461023c5780638345a7cb1461026b5780638da5cb5b146102965780638f32d59b146102ed578063c040e6b81461031c578063c210432014610355578063caa6fea4146103be578063f7afb433146103d5575b600080fd5b6100e86103ec565b005b3480156100f657600080fd5b506100ff610700565b6040518082815260200191505060405180910390f35b34801561012157600080fd5b5061012a610706565b005b34801561013857600080fd5b50610141610a54565b005b34801561014f57600080fd5b50610158610ba6565b604051808273ffffffffffffffffffffffffffffffffffffffff1673ffffffffffffffffffffffffffffffffffffffff16815260200191505060405180910390f35b3480156101a657600080fd5b506101e9600480360360208110156101bd57600080fd5b81019080803573ffffffffffffffffffffffffffffffffffffffff169060200190929190505050610bcc565b005b3480156101f757600080fd5b5061023a6004803603602081101561020e57600080fd5b81019080803573ffffffffffffffffffffffffffffffffffffffff169060200190929190505050610ebc565b005b34801561024857600080fd5b506102516112a6565b604051808215151515815260200191505060405180910390f35b34801561027757600080fd5b506102806112b9565b6040518082815260200191505060405180910390f35b3480156102a257600080fd5b506102ab6112bf565b604051808273ffffffffffffffffffffffffffffffffffffffff1673ffffffffffffffffffffffffffffffffffffffff16815260200191505060405180910390f35b3480156102f957600080fd5b506103026112e8565b604051808215151515815260200191505060405180910390f35b34801561032857600080fd5b5061033161133f565b6040518082600181111561034157fe5b60ff16815260200191505060405180910390f35b34801561036157600080fd5b506103a46004803603602081101561037857600080fd5b81019080803573ffffffffffffffffffffffffffffffffffffffff169060200190929190505050611352565b604051808215151515815260200191505060405180910390f35b3480156103ca57600080fd5b506103d3611372565b005b3480156103e157600080fd5b506103ea6114b4565b005b60018060018111156103fa57fe5b600060149054906101000a900460ff16600181111561041557fe5b1415156104b0576040517f08c379a00000000000000000000000000000000000000000000000000000000081526004018080602001828103825260288152602001807f46756e6374696f6e2063616e206e6f742062652063616c6c656420617420746881526020017f69732074696d652e00000000000000000000000000000000000000000000000081525060400191505060405180910390fd5b600760009054906101000a900460ff1615151561055b576040517f08c379a000000000000000000000000000000000000000000000000000000000815260040180806020018281038252602b8152602001807f456d657267656e63793b20746869732066756e6374696f6e2063616e206e6f7481526020017f2062652063616c6c65642e00000000000000000000000000000000000000000081525060400191505060405180910390fd5b6000341115156105f9576040517f08c379a00000000000000000000000000000000000000000000000000000000081526004018080602001828103825260238152602001807f656e6f7567682066756e64732068617665206e6f74206265656e2070726f766981526020017f646564000000000000000000000000000000000000000000000000000000000081525060400191505060405180910390fd5b600160065410151515610674576040517f08c379a000000000000000000000000000000000000000000000000000000000815260040180806020018281038252601b8152602001807f6e6f7420656e6f7567682066616e7320696e20636f6e7472616374000000000081525060200191505060405180910390fd5b61069c61068b60023461160990919063ffffffff16565b60045461163390919063ffffffff16565b6004819055506106ca6106b960023461160990919063ffffffff16565b60055461163390919063ffffffff16565b600581905550347fb222f36afc6c823bc44e2b8f7e372f27bbdb08d0863249bc335db897548205cc60405160405180910390a250565b60055481565b600180600181111561071457fe5b600060149054906101000a900460ff16600181111561072f57fe5b1415156107ca576040517f08c379a00000000000000000000000000000000000000000000000000000000081526004018080602001828103825260288152602001807f46756e6374696f6e2063616e206e6f742062652063616c6c656420617420746881526020017f69732074696d652e00000000000000000000000000000000000000000000000081525060400191505060405180910390fd5b60003073ffffffffffffffffffffffffffffffffffffffff163111151561087f576040517f08c379a000000000000000000000000000000000000000000000000000000000815260040180806020018281038252602b8152602001807f636f6e74726163742062616c616e6365206973206e6f7420656e6f756768206681526020017f6f7220776974686472617700000000000000000000000000000000000000000081525060400191505060405180910390fd5b6001600654101515156108fa576040517f08c379a000000000000000000000000000000000000000000000000000000000815260040180806020018281038252601b8152602001807f6e6f7420656e6f7567682066616e7320696e20636f6e7472616374000000000081525060200191505060405180910390fd5b600160003373ffffffffffffffffffffffffffffffffffffffff1673ffffffffffffffffffffffffffffffffffffffff16815260200190815260200160002060009054906101000a900460ff161561095957610954611654565b610a51565b600360009054906101000a900473ffffffffffffffffffffffffffffffffffffffff1673ffffffffffffffffffffffffffffffffffffffff163373ffffffffffffffffffffffffffffffffffffffff1614156109bc576109b761193b565b610a50565b6040517f08c379a00000000000000000000000000000000000000000000000000000000081526004018080602001828103825260248152602001807f6d73672e73656e646572206973206e6f7420612066616e206f7220616e20617281526020017f746973740000000000000000000000000000000000000000000000000000000081525060400191505060405180910390fd5b5b50565b610a5c6112e8565b1515610a6757600080fd5b6000806001811115610a7557fe5b600060149054906101000a900460ff166001811115610a9057fe5b141515610b2b576040517f08c379a00000000000000000000000000000000000000000000000000000000081526004018080602001828103825260288152602001807f46756e6374696f6e2063616e206e6f742062652063616c6c656420617420746881526020017f69732074696d652e00000000000000000000000000000000000000000000000081525060400191505060405180910390fd5b60405180807f436f6e74726163742053656c662d446573747275637465640000000000000000815250601801905060405180910390207fa0723314964f9a7c7bfe659adacc8bdab8884c55dfe4bc02f344b80d5e39aed760405160405180910390a23373ffffffffffffffffffffffffffffffffffffffff16ff5b600360009054906101000a900473ffffffffffffffffffffffffffffffffffffffff1681565b610bd46112e8565b1515610bdf57600080fd5b6000806001811115610bed57fe5b600060149054906101000a900460ff166001811115610c0857fe5b141515610ca3576040517f08c379a00000000000000000000000000000000000000000000000000000000081526004018080602001828103825260288152602001807f46756e6374696f6e2063616e206e6f742062652063616c6c656420617420746881526020017f69732074696d652e00000000000000000000000000000000000000000000000081525060400191505060405180910390fd5b600073ffffffffffffffffffffffffffffffffffffffff168273ffffffffffffffffffffffffffffffffffffffff1614151515610d6e576040517f08c379a00000000000000000000000000000000000000000000000000000000081526004018080602001828103825260258152602001807f796f752068617665206e6f7420737570706c69656420612076616c696420616481526020017f647265737300000000000000000000000000000000000000000000000000000081525060400191505060405180910390fd5b600073ffffffffffffffffffffffffffffffffffffffff16600360009054906101000a900473ffffffffffffffffffffffffffffffffffffffff1673ffffffffffffffffffffffffffffffffffffffff16141515610e34576040517f08c379a000000000000000000000000000000000000000000000000000000000815260040180806020018281038252601d8152602001807f617274697374206164647265737320616c72656164792065786973747300000081525060200191505060405180910390fd5b81600360006101000a81548173ffffffffffffffffffffffffffffffffffffffff021916908373ffffffffffffffffffffffffffffffffffffffff1602179055508173ffffffffffffffffffffffffffffffffffffffff167f0c5643058425ee9c945efd0ec355f9b98c17a3856f332070b09a602ea26b678260405160405180910390a25050565b610ec46112e8565b1515610ecf57600080fd5b6000806001811115610edd57fe5b600060149054906101000a900460ff166001811115610ef857fe5b141515610f93576040517f08c379a00000000000000000000000000000000000000000000000000000000081526004018080602001828103825260288152602001807f46756e6374696f6e2063616e206e6f742062652063616c6c656420617420746881526020017f69732074696d652e00000000000000000000000000000000000000000000000081525060400191505060405180910390fd5b600360009054906101000a900473ffffffffffffffffffffffffffffffffffffffff1673ffffffffffffffffffffffffffffffffffffffff168273ffffffffffffffffffffffffffffffffffffffff1614151515611059576040517f08c379a000000000000000000000000000000000000000000000000000000000815260040180806020018281038252601d8152602001807f6164647265737320697320616c7265616479207468652061727469737400000081525060200191505060405180910390fd5b600073ffffffffffffffffffffffffffffffffffffffff168273ffffffffffffffffffffffffffffffffffffffff1614151515611124576040517f08c379a00000000000000000000000000000000000000000000000000000000081526004018080602001828103825260258152602001807f796f752068617665206e6f7420737570706c69656420612076616c696420616481526020017f647265737300000000000000000000000000000000000000000000000000000081525060400191505060405180910390fd5b60001515600160008473ffffffffffffffffffffffffffffffffffffffff1673ffffffffffffffffffffffffffffffffffffffff16815260200190815260200160002060009054906101000a900460ff1615151415156111ec576040517f08c379a000000000000000000000000000000000000000000000000000000000815260040180806020018281038252601a8152602001807f66616e206164647265737320616c72656164792065786973747300000000000081525060200191505060405180910390fd5b60018060008473ffffffffffffffffffffffffffffffffffffffff1673ffffffffffffffffffffffffffffffffffffffff16815260200190815260200160002060006101000a81548160ff021916908315150217905550611259600160065461163390919063ffffffff16565b6006819055508173ffffffffffffffffffffffffffffffffffffffff167f2fc7e8c17ce2f5435475f926e84e7e4a0fa2000f9f6c84df6bcff4898c4bb5c260405160405180910390a25050565b600760009054906101000a900460ff1681565b60065481565b60008060009054906101000a900473ffffffffffffffffffffffffffffffffffffffff16905090565b60008060009054906101000a900473ffffffffffffffffffffffffffffffffffffffff1673ffffffffffffffffffffffffffffffffffffffff163373ffffffffffffffffffffffffffffffffffffffff1614905090565b600060149054906101000a900460ff1681565b60016020528060005260406000206000915054906101000a900460ff1681565b61137a6112e8565b151561138557600080fd5b600180600181111561139357fe5b600060149054906101000a900460ff1660018111156113ae57fe5b141515611449576040517f08c379a00000000000000000000000000000000000000000000000000000000081526004018080602001828103825260288152602001807f46756e6374696f6e2063616e206e6f742062652063616c6c656420617420746881526020017f69732074696d652e00000000000000000000000000000000000000000000000081525060400191505060405180910390fd5b600760009054906101000a900460ff1615600760006101000a81548160ff021916908315150217905550600760009054906101000a900460ff1615157f055941b77cd58f4d6861b56e99057bf0eae47e9753b74a2c30f6557fc7a7c45e60405160405180910390a250565b6114bc6112e8565b15156114c757600080fd5b60008060018111156114d557fe5b600060149054906101000a900460ff1660018111156114f057fe5b14151561158b576040517f08c379a00000000000000000000000000000000000000000000000000000000081526004018080602001828103825260288152602001807f46756e6374696f6e2063616e206e6f742062652063616c6c656420617420746881526020017f69732074696d652e00000000000000000000000000000000000000000000000081525060400191505060405180910390fd5b6001600060149054906101000a900460ff1660018111156115a857fe5b0160018111156115b457fe5b600060146101000a81548160ff021916908360018111156115d157fe5b0217905550600115157fc3daf27c261a939396e83b413e7d549df9f0cff66a2addd7068c73d65d36f31560405160405180910390a250565b6000808211151561161957600080fd5b6000828481151561162657fe5b0490508091505092915050565b600080828401905083811015151561164a57600080fd5b8091505092915050565b600180600181111561166257fe5b600060149054906101000a900460ff16600181111561167d57fe5b141515611718576040517f08c379a00000000000000000000000000000000000000000000000000000000081526004018080602001828103825260288152602001807f46756e6374696f6e2063616e206e6f742062652063616c6c656420617420746881526020017f69732074696d652e00000000000000000000000000000000000000000000000081525060400191505060405180910390fd5b6000611782600260003373ffffffffffffffffffffffffffffffffffffffff1673ffffffffffffffffffffffffffffffffffffffff1681526020019081526020016000205461177460065460055461160990919063ffffffff16565b611b2390919063ffffffff16565b9050600081141515156117fd576040517f08c379a000000000000000000000000000000000000000000000000000000000815260040180806020018281038252600c8152602001807f7061796d656e742069732030000000000000000000000000000000000000000081525060200191505060405180910390fd5b803073ffffffffffffffffffffffffffffffffffffffff16311015151561182057fe5b806005541015151561182e57fe5b61188081600260003373ffffffffffffffffffffffffffffffffffffffff1673ffffffffffffffffffffffffffffffffffffffff1681526020019081526020016000205461163390919063ffffffff16565b600260003373ffffffffffffffffffffffffffffffffffffffff1673ffffffffffffffffffffffffffffffffffffffff168152602001908152602001600020819055503373ffffffffffffffffffffffffffffffffffffffff166108fc829081150290604051600060405180830381858888f19350505050158015611909573d6000803e3d6000fd5b50807faf9e0b29f19a8491dbb26c9d65f215feafd2db0d4bb7799655f76f3c5877fba960405160405180910390a25050565b600180600181111561194957fe5b600060149054906101000a900460ff16600181111561196457fe5b1415156119ff576040517f08c379a00000000000000000000000000000000000000000000000000000000081526004018080602001828103825260288152602001807f46756e6374696f6e2063616e206e6f742062652063616c6c656420617420746881526020017f69732074696d652e00000000000000000000000000000000000000000000000081525060400191505060405180910390fd5b600060045414151515611a7a576040517f08c379a00000000000000000000000000000000000000000000000000000000081526004018080602001828103825260138152602001807f6172746973742062616c616e636520697320300000000000000000000000000081525060200191505060405180910390fd5b600060045490506000600481905550600360009054906101000a900473ffffffffffffffffffffffffffffffffffffffff1673ffffffffffffffffffffffffffffffffffffffff166108fc829081150290604051600060405180830381858888f19350505050158015611af1573d6000803e3d6000fd5b50807ff1dac3940a59aad5bfce1b58641d7186b05b773e9f4cfc16c57d9a352ddbc69960405160405180910390a25050565b6000828211151515611b3457600080fd5b60008284039050809150509291505056fea165627a7a723058208ad334a79fac8a0293d15edfc6b1c0bd18657c6779308c5298f05fd97620f66e0029",
  "source": "pragma solidity ^0.5.0;\n\nimport \"./SafeMath.sol\"; \nimport \"./Ownable.sol\";\n\n\n/// @author Saga Arvidsdotter - <hello@sagaarvidsdotter.com>\n/// @title SplitRevenue - Splitting revenue from a song between artist and fans. \n \ncontract SplitRevenue is Ownable {\n    using SafeMath for uint256; \n\n    event ArtistAddition(address indexed artistFeatured);\n    event FanAddition(address indexed fansFeatured);\n    event RevenueDeposit(uint256 indexed revenue);\n    event ArtistRevenueRelease(uint256 indexed artistRevenuePayment);\n    event FanRevenueRelease(uint256 indexed fanRevenuePayment); \n    event SelfDestruction(string indexed message); \n    event StageOpenTransition(bool indexed stageOpen);\n    event EmergencyStated(bool indexed emergencyState);\n\n    Stages public stage = Stages.Creation;\n    mapping(address => bool) public fanExists;\n    mapping(address => uint256) private _fanEthReleased; \n    address payable public artist;\n    uint256 private artistSplitBalance; \n    uint256 public fansSplitTotal; \n    uint256 public fansCount; \n    bool public stopped = false;\n\n    enum Stages {\n        Creation, Open\n    }\n\n    modifier atStage(Stages _stage) {\n        require(stage == _stage, \"Function can not be called at this time.\");\n        _;\n    }\n\n    modifier stopInEmergency {\n        require(!stopped, \"Emergency; this function can not be called.\");\n        _;\n    }\n\n    /// External and public functions. \n   \n    /// @dev Contract constructor sets starting values of balances and number of fans to 0.    \n    constructor() public {\n        artistSplitBalance = 0;\n        fansSplitTotal = 0;\n        fansCount = 0;\n    }\n\n    /// @dev Allows anyone to deposit ether and split half for the artist and half equally between fans.\n    /// @dev Access is restricted to stage Open. An owner can disallow access in emergency. \n    function paySplit() \n        external \n        payable \n        atStage(Stages.Open) \n        stopInEmergency \n    {\n        require(msg.value > 0, \"enough funds have not been provided\"); \n        require(fansCount >= 1, \"not enough fans in contract\");\n        artistSplitBalance = artistSplitBalance.add(msg.value.div(2)); \n        fansSplitTotal = fansSplitTotal.add(msg.value.div(2)); \n        emit RevenueDeposit(msg.value);\n    }\n  \n    /// @dev Allows an owner to add an artist if one does not exist yet.\n    /// @dev Access is restricted to the Creation stage. \n    /// @param _artist Address of artist.   \n    function addArtist(address payable _artist) \n        public \n        onlyOwner \n        atStage(Stages.Creation) \n    {\n        require(_artist != address(0), \"you have not supplied a valid address\");\n        require(address(artist) == address(0), \"artist address already exists\"); \n        artist = _artist;\n        emit ArtistAddition(_artist);\n    }\n   \n    /// @dev Allows an owner to add a new fan. \n    /// @dev Access is restricted to the Creation stage.\n    /// @param _fan Address of new fan.   \n    function addFan(address payable _fan) \n        public \n        onlyOwner \n        atStage(Stages.Creation) \n    { \n        require(_fan != artist, \"address is already the artist\");\n        require(_fan != address(0), \"you have not supplied a valid address\");\n        require(fanExists[_fan] == false, \"fan address already exists\");\n        fanExists[_fan] = true;\n        fansCount = fansCount.add(1); \n        emit FanAddition(_fan);\n    }\n   \n    /// @dev Allows an owner to change stage from Creation to Open. \n    /// @dev Access is restricted to stage Creation.  \n    function openSplit() \n        public \n        onlyOwner \n        atStage(Stages.Creation) \n    { \n        stage = Stages(uint256(stage) + 1);\n        emit StageOpenTransition(true);\n    }\n   \n    /// @dev Allows a fan or artist to withdraw their ether split. \n    /// @dev Access is restricted to stage Open. \n    function withdraw() \n        public \n        atStage(Stages.Open) \n    {  \n        require(address(this).balance > 0, \"contract balance is not enough for withdraw\");\n        require(fansCount >= 1, \"not enough fans in contract\");        \n        if(fanExists[msg.sender]){\n            fanWithdraw();\n        } else if(msg.sender == artist) {\n            artistWithdraw();\n        } else {\n            revert(\"msg.sender is not a fan or an artist\");\n        }\n    }\n  \n    /// @dev In emergency allows an owner to toggle an access restriction modifier on and off.\n    /// @dev Access is restricted to stage Open.  \n    function emergency() \n        public \n        onlyOwner \n        atStage(Stages.Open) \n    {\n        stopped = !stopped;\n        emit EmergencyStated(stopped);\n    }\n \n    /// @dev Allows an owner to self-destruct contract.\n    /// @dev Access is restricted to stage Creation. \n    function kill() \n        public \n        onlyOwner \n        atStage(Stages.Creation) \n    {\n        emit SelfDestruction(\"Contract Self-Destructed\"); \n        selfdestruct(msg.sender);\n    }\n\n    /// Private functions. \n\n    /// @dev Transfer artist's remaining ether split to artist's address. \n    /// @dev Access is restricted to stage Open.  \n    function artistWithdraw() \n        private \n        atStage(Stages.Open) \n    {   \n        require(artistSplitBalance != 0, \"artist balance is 0\");\n        uint256 artistSplitWithdraw = artistSplitBalance;\n        artistSplitBalance = 0; \n        artist.transfer(artistSplitWithdraw);\n        emit ArtistRevenueRelease(artistSplitWithdraw);\n    }\n    \n    /// @dev Transfer fan's remaining ether split to fan's address. \n    /// @dev Access is restricted to stage Open. \n    function fanWithdraw() \n        private \n        atStage(Stages.Open) \n    { \n        uint256 payment = fansSplitTotal.div(fansCount).sub(_fanEthReleased[msg.sender]); \n        require(payment != 0, \"payment is 0\"); \n        assert(address(this).balance >= payment);\n        assert(fansSplitTotal >= payment); \n        _fanEthReleased[msg.sender] = _fanEthReleased[msg.sender].add(payment);\n        msg.sender.transfer(payment);\n        emit FanRevenueRelease(payment);\n    }\n}\n",
  "sourcePath": "/Users/malinarvidsson/Desktop/final-project-SagaDott/contracts/SplitRevenue.sol",
  "compiler": {
    "name": "solc",
    "version": "0.5.0+commit.1d4f565a.Emscripten.clang"
  },
  "schemaVersion": "3.0.1",
  "updatedAt": "2019-02-27T11:23:31.896Z",
  "devdoc": {
    "author": "Saga Arvidsdotter - <hello@sagaarvidsdotter.com>",
    "methods": {
      "addArtist(address)": {
        "details": "Allows an owner to add an artist if one does not exist yet.Access is restricted to the Creation stage. ",
        "params": {
          "_artist": "Address of artist.   "
        }
      },
      "addFan(address)": {
        "details": "Allows an owner to add a new fan. Access is restricted to the Creation stage.",
        "params": {
          "_fan": "Address of new fan.   "
        }
      },
      "constructor": {
        "details": "Contract constructor sets starting values of balances and number of fans to 0.    "
      },
      "emergency()": {
        "details": "In emergency allows an owner to toggle an access restriction modifier on and off.Access is restricted to stage Open.  "
      },
      "isOwner()": {
        "return": "true if `msg.sender` is the owner of the contract."
      },
      "kill()": {
        "details": "Allows an owner to self-destruct contract.Access is restricted to stage Creation. "
      },
      "openSplit()": {
        "details": "Allows an owner to change stage from Creation to Open. Access is restricted to stage Creation.  "
      },
      "owner()": {
        "return": "the address of the owner."
      },
      "paySplit()": {
        "details": "Allows anyone to deposit ether and split half for the artist and half equally between fans.Access is restricted to stage Open. An owner can disallow access in emergency. "
      },
      "withdraw()": {
        "details": "Allows a fan or artist to withdraw their ether split. Access is restricted to stage Open. "
      }
    },
    "title": "SplitRevenue - Splitting revenue from a song between artist and fans. "
  },
  "userdoc": {
    "methods": {
      "constructor": "External and public functions. "
    }
  }
}